{
    "contractName": "GetCoin",
    "abi": [
        {
            "inputs": [],
            "payable": false,
            "stateMutability": "nonpayable",
            "type": "constructor"
        },
        {
            "constant": false,
            "inputs": [],
            "name": "deposit",
            "outputs": [
                {
                    "name": "",
                    "type": "address"
                },
                {
                    "name": "",
                    "type": "uint256"
                }
            ],
            "payable": true,
            "stateMutability": "payable",
            "type": "function"
        },
        {
            "constant": false,
            "inputs": [
                {
                    "name": "addr",
                    "type": "address"
                }
            ],
            "name": "getOneCoin",
            "outputs": [
                {
                    "name": "",
                    "type": "uint256"
                }
            ],
            "payable": false,
            "stateMutability": "nonpayable",
            "type": "function"
        },
        {
            "constant": true,
            "inputs": [],
            "name": "getContractAddrees",
            "outputs": [
                {
                    "name": "",
                    "type": "address"
                },
                {
                    "name": "",
                    "type": "uint256"
                }
            ],
            "payable": false,
            "stateMutability": "view",
            "type": "function"
        },
        {
            "constant": true,
            "inputs": [
                {
                    "name": "addr",
                    "type": "address"
                }
            ],
            "name": "getBalance",
            "outputs": [
                {
                    "name": "",
                    "type": "uint256"
                }
            ],
            "payable": false,
            "stateMutability": "view",
            "type": "function"
        }
    ],
    "bytecode": "0x608060405234801561001057600080fd5b50336000806101000a81548173ffffffffffffffffffffffffffffffffffffffff021916908373ffffffffffffffffffffffffffffffffffffffff1602179055506103ab806100606000396000f300608060405260043610610062576000357c0100000000000000000000000000000000000000000000000000000000900463ffffffff168063c3b0674714610067578063d0e30db0146100c5578063dde0b70314610116578063f8b2cb4f1461016d575b600080fd5b34801561007357600080fd5b5061007c6101c4565b604051808373ffffffffffffffffffffffffffffffffffffffff1673ffffffffffffffffffffffffffffffffffffffff1681526020018281526020019250505060405180910390f35b6100cd6101eb565b604051808373ffffffffffffffffffffffffffffffffffffffff1673ffffffffffffffffffffffffffffffffffffffff1681526020018281526020019250505060405180910390f35b34801561012257600080fd5b50610157600480360381019080803573ffffffffffffffffffffffffffffffffffffffff1690602001909291905050506101f8565b6040518082815260200191505060405180910390f35b34801561017957600080fd5b506101ae600480360381019080803573ffffffffffffffffffffffffffffffffffffffff16906020019092919050505061035e565b6040518082815260200191505060405180910390f35b600080303073ffffffffffffffffffffffffffffffffffffffff1631819150915091509091565b6000803334915091509091565b6000806000809054906101000a900473ffffffffffffffffffffffffffffffffffffffff1673ffffffffffffffffffffffffffffffffffffffff163373ffffffffffffffffffffffffffffffffffffffff1614151561025657600080fd5b600160008473ffffffffffffffffffffffffffffffffffffffff1673ffffffffffffffffffffffffffffffffffffffff168152602001908152602001600020549050620151808101421115156102ab57600080fd5b42600160008573ffffffffffffffffffffffffffffffffffffffff1673ffffffffffffffffffffffffffffffffffffffff168152602001908152602001600020819055508273ffffffffffffffffffffffffffffffffffffffff166108fc670de0b6b3a76400009081150290604051600060405180830381858888f1935050505015801561033d573d6000803e3d6000fd5b508273ffffffffffffffffffffffffffffffffffffffff1631915050919050565b60008173ffffffffffffffffffffffffffffffffffffffff163190509190505600a165627a7a72305820874a5ff3c7999bee5873a4f4cd6a9c99b98b4fe55a5ccbf4b1f78c7a81921c280029",
    "source": "pragma solidity ^0.4.17;\n\n\n//学员领用以太币，一天最多只能领取一个\ncontract GetCoin {\n    address owner;\n    mapping (address=>uint) getRecord; //领用时间记录\n\n    function GetCoin() {\n        owner = msg.sender;\n    }\n\n    modifier onlyOwner {\n        require(msg.sender == owner);\n        _;\n    }\n\n    //调用者向合约地址转入 msg.value 个以太币，单位是 wei\n    function deposit() payable  returns  (address, uint) {\n        return (msg.sender, msg.value);\n    }\n\n    //为addr发放一个1个以太币\n    function getOneCoin(address addr) onlyOwner returns (uint) {\n        uint preTime = getRecord[addr]; //上次领用时间\n        require(now > preTime + 1 days);//一天最多领取一个\n        getRecord[addr] = now; //记录最新领取时间\n        addr.transfer(1 ether);\n        return addr.balance;\n    }\n\n    //获得合约的地址和以太币\n    function getContractAddrees() view returns (address, uint) {\n        return (this, this.balance);\n    }\n    \n    //获得addr的以太币\n    function getBalance(address addr) view returns (uint) {\n        return addr.balance;\n    }\n}",
    "sourcePath": "F:\\fanxu\\Hackathon\\blockChain\\reference\\new\\contracts\\GetCoin.sol",
    "compiler": {
        "name": "solc",
        "version": "0.4.24+commit.e67f0147.Emscripten.clang"
    },
    "schemaVersion": "2.0.1",
    "updatedAt": "2018-07-26T00:32:10.736Z"
}